{
  "_format": "hh-sol-artifact-1",
  "contractName": "GolfDAO_V2",
  "sourceName": "contracts/GolfDAO_V2.sol",
  "abi": [
    {
      "inputs": [],
      "stateMutability": "nonpayable",
      "type": "constructor"
    },
    {
      "anonymous": false,
      "inputs": [
        {
          "indexed": false,
          "internalType": "address",
          "name": "previousAdmin",
          "type": "address"
        },
        {
          "indexed": false,
          "internalType": "address",
          "name": "newAdmin",
          "type": "address"
        }
      ],
      "name": "AdminChanged",
      "type": "event"
    },
    {
      "anonymous": false,
      "inputs": [
        {
          "indexed": true,
          "internalType": "address",
          "name": "owner",
          "type": "address"
        },
        {
          "indexed": true,
          "internalType": "address",
          "name": "approved",
          "type": "address"
        },
        {
          "indexed": true,
          "internalType": "uint256",
          "name": "tokenId",
          "type": "uint256"
        }
      ],
      "name": "Approval",
      "type": "event"
    },
    {
      "anonymous": false,
      "inputs": [
        {
          "indexed": true,
          "internalType": "address",
          "name": "owner",
          "type": "address"
        },
        {
          "indexed": true,
          "internalType": "address",
          "name": "operator",
          "type": "address"
        },
        {
          "indexed": false,
          "internalType": "bool",
          "name": "approved",
          "type": "bool"
        }
      ],
      "name": "ApprovalForAll",
      "type": "event"
    },
    {
      "anonymous": false,
      "inputs": [
        {
          "indexed": true,
          "internalType": "address",
          "name": "beacon",
          "type": "address"
        }
      ],
      "name": "BeaconUpgraded",
      "type": "event"
    },
    {
      "anonymous": false,
      "inputs": [
        {
          "indexed": true,
          "internalType": "address",
          "name": "delegator",
          "type": "address"
        },
        {
          "indexed": true,
          "internalType": "address",
          "name": "fromDelegate",
          "type": "address"
        },
        {
          "indexed": true,
          "internalType": "address",
          "name": "toDelegate",
          "type": "address"
        }
      ],
      "name": "DelegateChanged",
      "type": "event"
    },
    {
      "anonymous": false,
      "inputs": [
        {
          "indexed": true,
          "internalType": "address",
          "name": "delegate",
          "type": "address"
        },
        {
          "indexed": false,
          "internalType": "uint256",
          "name": "previousBalance",
          "type": "uint256"
        },
        {
          "indexed": false,
          "internalType": "uint256",
          "name": "newBalance",
          "type": "uint256"
        }
      ],
      "name": "DelegateVotesChanged",
      "type": "event"
    },
    {
      "anonymous": false,
      "inputs": [
        {
          "indexed": true,
          "internalType": "address",
          "name": "previousOwner",
          "type": "address"
        },
        {
          "indexed": true,
          "internalType": "address",
          "name": "newOwner",
          "type": "address"
        }
      ],
      "name": "OwnershipTransferred",
      "type": "event"
    },
    {
      "anonymous": false,
      "inputs": [
        {
          "indexed": false,
          "internalType": "address",
          "name": "account",
          "type": "address"
        }
      ],
      "name": "Paused",
      "type": "event"
    },
    {
      "anonymous": false,
      "inputs": [
        {
          "indexed": true,
          "internalType": "address",
          "name": "from",
          "type": "address"
        },
        {
          "indexed": true,
          "internalType": "address",
          "name": "to",
          "type": "address"
        },
        {
          "indexed": true,
          "internalType": "uint256",
          "name": "tokenId",
          "type": "uint256"
        }
      ],
      "name": "Transfer",
      "type": "event"
    },
    {
      "anonymous": false,
      "inputs": [
        {
          "indexed": false,
          "internalType": "address",
          "name": "account",
          "type": "address"
        }
      ],
      "name": "Unpaused",
      "type": "event"
    },
    {
      "anonymous": false,
      "inputs": [
        {
          "indexed": true,
          "internalType": "address",
          "name": "implementation",
          "type": "address"
        }
      ],
      "name": "Upgraded",
      "type": "event"
    },
    {
      "inputs": [],
      "name": "DOMAIN_SEPARATOR",
      "outputs": [
        {
          "internalType": "bytes32",
          "name": "",
          "type": "bytes32"
        }
      ],
      "stateMutability": "view",
      "type": "function"
    },
    {
      "inputs": [
        {
          "internalType": "address",
          "name": "to",
          "type": "address"
        },
        {
          "internalType": "uint256",
          "name": "tokenId",
          "type": "uint256"
        }
      ],
      "name": "approve",
      "outputs": [],
      "stateMutability": "nonpayable",
      "type": "function"
    },
    {
      "inputs": [
        {
          "internalType": "address",
          "name": "owner",
          "type": "address"
        }
      ],
      "name": "balanceOf",
      "outputs": [
        {
          "internalType": "uint256",
          "name": "",
          "type": "uint256"
        }
      ],
      "stateMutability": "view",
      "type": "function"
    },
    {
      "inputs": [
        {
          "internalType": "uint256",
          "name": "tokenId",
          "type": "uint256"
        }
      ],
      "name": "burn",
      "outputs": [],
      "stateMutability": "nonpayable",
      "type": "function"
    },
    {
      "inputs": [],
      "name": "cost",
      "outputs": [
        {
          "internalType": "uint256",
          "name": "",
          "type": "uint256"
        }
      ],
      "stateMutability": "view",
      "type": "function"
    },
    {
      "inputs": [
        {
          "internalType": "address",
          "name": "delegatee",
          "type": "address"
        }
      ],
      "name": "delegate",
      "outputs": [],
      "stateMutability": "nonpayable",
      "type": "function"
    },
    {
      "inputs": [
        {
          "internalType": "address",
          "name": "delegatee",
          "type": "address"
        },
        {
          "internalType": "uint256",
          "name": "nonce",
          "type": "uint256"
        },
        {
          "internalType": "uint256",
          "name": "expiry",
          "type": "uint256"
        },
        {
          "internalType": "uint8",
          "name": "v",
          "type": "uint8"
        },
        {
          "internalType": "bytes32",
          "name": "r",
          "type": "bytes32"
        },
        {
          "internalType": "bytes32",
          "name": "s",
          "type": "bytes32"
        }
      ],
      "name": "delegateBySig",
      "outputs": [],
      "stateMutability": "nonpayable",
      "type": "function"
    },
    {
      "inputs": [
        {
          "internalType": "address",
          "name": "account",
          "type": "address"
        }
      ],
      "name": "delegates",
      "outputs": [
        {
          "internalType": "address",
          "name": "",
          "type": "address"
        }
      ],
      "stateMutability": "view",
      "type": "function"
    },
    {
      "inputs": [
        {
          "internalType": "uint256",
          "name": "tokenId",
          "type": "uint256"
        }
      ],
      "name": "getApproved",
      "outputs": [
        {
          "internalType": "address",
          "name": "",
          "type": "address"
        }
      ],
      "stateMutability": "view",
      "type": "function"
    },
    {
      "inputs": [
        {
          "internalType": "uint256",
          "name": "blockNumber",
          "type": "uint256"
        }
      ],
      "name": "getPastTotalSupply",
      "outputs": [
        {
          "internalType": "uint256",
          "name": "",
          "type": "uint256"
        }
      ],
      "stateMutability": "view",
      "type": "function"
    },
    {
      "inputs": [
        {
          "internalType": "address",
          "name": "account",
          "type": "address"
        },
        {
          "internalType": "uint256",
          "name": "blockNumber",
          "type": "uint256"
        }
      ],
      "name": "getPastVotes",
      "outputs": [
        {
          "internalType": "uint256",
          "name": "",
          "type": "uint256"
        }
      ],
      "stateMutability": "view",
      "type": "function"
    },
    {
      "inputs": [
        {
          "internalType": "address",
          "name": "account",
          "type": "address"
        }
      ],
      "name": "getVotes",
      "outputs": [
        {
          "internalType": "uint256",
          "name": "",
          "type": "uint256"
        }
      ],
      "stateMutability": "view",
      "type": "function"
    },
    {
      "inputs": [],
      "name": "initialize",
      "outputs": [],
      "stateMutability": "nonpayable",
      "type": "function"
    },
    {
      "inputs": [
        {
          "internalType": "address",
          "name": "owner",
          "type": "address"
        },
        {
          "internalType": "address",
          "name": "operator",
          "type": "address"
        }
      ],
      "name": "isApprovedForAll",
      "outputs": [
        {
          "internalType": "bool",
          "name": "",
          "type": "bool"
        }
      ],
      "stateMutability": "view",
      "type": "function"
    },
    {
      "inputs": [],
      "name": "maxSupply",
      "outputs": [
        {
          "internalType": "uint256",
          "name": "",
          "type": "uint256"
        }
      ],
      "stateMutability": "view",
      "type": "function"
    },
    {
      "inputs": [],
      "name": "name",
      "outputs": [
        {
          "internalType": "string",
          "name": "",
          "type": "string"
        }
      ],
      "stateMutability": "view",
      "type": "function"
    },
    {
      "inputs": [
        {
          "internalType": "address",
          "name": "owner",
          "type": "address"
        }
      ],
      "name": "nonces",
      "outputs": [
        {
          "internalType": "uint256",
          "name": "",
          "type": "uint256"
        }
      ],
      "stateMutability": "view",
      "type": "function"
    },
    {
      "inputs": [],
      "name": "owner",
      "outputs": [
        {
          "internalType": "address",
          "name": "",
          "type": "address"
        }
      ],
      "stateMutability": "view",
      "type": "function"
    },
    {
      "inputs": [
        {
          "internalType": "uint256",
          "name": "tokenId",
          "type": "uint256"
        }
      ],
      "name": "ownerOf",
      "outputs": [
        {
          "internalType": "address",
          "name": "",
          "type": "address"
        }
      ],
      "stateMutability": "view",
      "type": "function"
    },
    {
      "inputs": [],
      "name": "pause",
      "outputs": [],
      "stateMutability": "nonpayable",
      "type": "function"
    },
    {
      "inputs": [],
      "name": "paused",
      "outputs": [
        {
          "internalType": "bool",
          "name": "",
          "type": "bool"
        }
      ],
      "stateMutability": "view",
      "type": "function"
    },
    {
      "inputs": [],
      "name": "proxiableUUID",
      "outputs": [
        {
          "internalType": "bytes32",
          "name": "",
          "type": "bytes32"
        }
      ],
      "stateMutability": "view",
      "type": "function"
    },
    {
      "inputs": [],
      "name": "renounceOwnership",
      "outputs": [],
      "stateMutability": "nonpayable",
      "type": "function"
    },
    {
      "inputs": [
        {
          "internalType": "address",
          "name": "to",
          "type": "address"
        },
        {
          "internalType": "string",
          "name": "uri",
          "type": "string"
        }
      ],
      "name": "safeMint",
      "outputs": [],
      "stateMutability": "payable",
      "type": "function"
    },
    {
      "inputs": [
        {
          "internalType": "address",
          "name": "from",
          "type": "address"
        },
        {
          "internalType": "address",
          "name": "to",
          "type": "address"
        },
        {
          "internalType": "uint256",
          "name": "tokenId",
          "type": "uint256"
        }
      ],
      "name": "safeTransferFrom",
      "outputs": [],
      "stateMutability": "nonpayable",
      "type": "function"
    },
    {
      "inputs": [
        {
          "internalType": "address",
          "name": "from",
          "type": "address"
        },
        {
          "internalType": "address",
          "name": "to",
          "type": "address"
        },
        {
          "internalType": "uint256",
          "name": "tokenId",
          "type": "uint256"
        },
        {
          "internalType": "bytes",
          "name": "_data",
          "type": "bytes"
        }
      ],
      "name": "safeTransferFrom",
      "outputs": [],
      "stateMutability": "nonpayable",
      "type": "function"
    },
    {
      "inputs": [
        {
          "internalType": "address",
          "name": "operator",
          "type": "address"
        },
        {
          "internalType": "bool",
          "name": "approved",
          "type": "bool"
        }
      ],
      "name": "setApprovalForAll",
      "outputs": [],
      "stateMutability": "nonpayable",
      "type": "function"
    },
    {
      "inputs": [
        {
          "internalType": "uint256",
          "name": "_newCost",
          "type": "uint256"
        }
      ],
      "name": "setCost",
      "outputs": [],
      "stateMutability": "nonpayable",
      "type": "function"
    },
    {
      "inputs": [
        {
          "internalType": "bytes4",
          "name": "interfaceId",
          "type": "bytes4"
        }
      ],
      "name": "supportsInterface",
      "outputs": [
        {
          "internalType": "bool",
          "name": "",
          "type": "bool"
        }
      ],
      "stateMutability": "view",
      "type": "function"
    },
    {
      "inputs": [],
      "name": "symbol",
      "outputs": [
        {
          "internalType": "string",
          "name": "",
          "type": "string"
        }
      ],
      "stateMutability": "view",
      "type": "function"
    },
    {
      "inputs": [
        {
          "internalType": "uint256",
          "name": "index",
          "type": "uint256"
        }
      ],
      "name": "tokenByIndex",
      "outputs": [
        {
          "internalType": "uint256",
          "name": "",
          "type": "uint256"
        }
      ],
      "stateMutability": "view",
      "type": "function"
    },
    {
      "inputs": [
        {
          "internalType": "address",
          "name": "owner",
          "type": "address"
        },
        {
          "internalType": "uint256",
          "name": "index",
          "type": "uint256"
        }
      ],
      "name": "tokenOfOwnerByIndex",
      "outputs": [
        {
          "internalType": "uint256",
          "name": "",
          "type": "uint256"
        }
      ],
      "stateMutability": "view",
      "type": "function"
    },
    {
      "inputs": [
        {
          "internalType": "uint256",
          "name": "tokenId",
          "type": "uint256"
        }
      ],
      "name": "tokenURI",
      "outputs": [
        {
          "internalType": "string",
          "name": "",
          "type": "string"
        }
      ],
      "stateMutability": "view",
      "type": "function"
    },
    {
      "inputs": [],
      "name": "totalSupply",
      "outputs": [
        {
          "internalType": "uint256",
          "name": "",
          "type": "uint256"
        }
      ],
      "stateMutability": "view",
      "type": "function"
    },
    {
      "inputs": [
        {
          "internalType": "address",
          "name": "from",
          "type": "address"
        },
        {
          "internalType": "address",
          "name": "to",
          "type": "address"
        },
        {
          "internalType": "uint256",
          "name": "tokenId",
          "type": "uint256"
        }
      ],
      "name": "transferFrom",
      "outputs": [],
      "stateMutability": "nonpayable",
      "type": "function"
    },
    {
      "inputs": [
        {
          "internalType": "address",
          "name": "newOwner",
          "type": "address"
        }
      ],
      "name": "transferOwnership",
      "outputs": [],
      "stateMutability": "nonpayable",
      "type": "function"
    },
    {
      "inputs": [],
      "name": "unpause",
      "outputs": [],
      "stateMutability": "nonpayable",
      "type": "function"
    },
    {
      "inputs": [
        {
          "internalType": "uint256",
          "name": "tokenId",
          "type": "uint256"
        },
        {
          "internalType": "string",
          "name": "newTokenURI",
          "type": "string"
        }
      ],
      "name": "updateURI",
      "outputs": [],
      "stateMutability": "nonpayable",
      "type": "function"
    },
    {
      "inputs": [
        {
          "internalType": "address",
          "name": "newImplementation",
          "type": "address"
        }
      ],
      "name": "upgradeTo",
      "outputs": [],
      "stateMutability": "nonpayable",
      "type": "function"
    },
    {
      "inputs": [
        {
          "internalType": "address",
          "name": "newImplementation",
          "type": "address"
        },
        {
          "internalType": "bytes",
          "name": "data",
          "type": "bytes"
        }
      ],
      "name": "upgradeToAndCall",
      "outputs": [],
      "stateMutability": "payable",
      "type": "function"
    },
    {
      "inputs": [],
      "name": "withdraw",
      "outputs": [],
      "stateMutability": "nonpayable",
      "type": "function"
    }
  ],
  "bytecode": "0x60a06040523060601b6080523480156200001857600080fd5b50600054610100900460ff16620000365760005460ff161562000040565b62000040620000e5565b620000a85760405162461bcd60e51b815260206004820152602e60248201527f496e697469616c697a61626c653a20636f6e747261637420697320616c72656160448201526d191e481a5b9a5d1a585b1a5e995960921b606482015260840160405180910390fd5b600054610100900460ff16158015620000cb576000805461ffff19166101011790555b8015620000de576000805461ff00191690555b5062000112565b6000620000fd306200010360201b620017a01760201c565b15905090565b6001600160a01b03163b151590565b60805160601c6140c96200014d60003960008181610af301528181610b3301528181610f1701528181610f57015261108701526140c96000f3fe6080604052600436106102465760003560e01c8063587cde1e116101395780638e539e8c116100b6578063c3cda5201161007a578063c3cda52014610682578063c87b56dd146106a2578063d204c45e146106c2578063d5abeb01146106d5578063e985e9c5146106ec578063f2fde38b1461073557600080fd5b80638e539e8c146105ed57806395d89b411461060d5780639ab24eb014610622578063a22cb46514610642578063b88d4fde1461066257600080fd5b8063715018a6116100fd578063715018a61461056f5780637ecebe00146105845780638129fc1c146105a45780638456cb59146105b95780638da5cb5b146105ce57600080fd5b8063587cde1e146104bd5780635c19a95c146104f75780635c975abb146105175780636352211e1461052f57806370a082311461054f57600080fd5b80633659cfe6116101c757806342966c681161018b57806342966c681461043557806344a0d68a146104555780634f1ef286146104755780634f6ccce71461048857806352d1902d146104a857600080fd5b80633659cfe6146103ab5780633a46b1a8146103cb5780633ccfd60b146103eb5780633f4ba83a1461040057806342842e0e1461041557600080fd5b806318160ddd1161020e57806318160ddd1461032157806323b872dd146103365780632f745c591461035657806331d41c69146103765780633644e5151461039657600080fd5b806301ffc9a71461024b57806306fdde0314610280578063081812fc146102a2578063095ea7b3146102da57806313faede6146102fc575b600080fd5b34801561025757600080fd5b5061026b610266366004613bd4565b610755565b60405190151581526020015b60405180910390f35b34801561028c57600080fd5b50610295610766565b6040516102779190613d07565b3480156102ae57600080fd5b506102c26102bd366004613c0c565b6107f8565b6040516001600160a01b039091168152602001610277565b3480156102e657600080fd5b506102fa6102f5366004613b35565b610885565b005b34801561030857600080fd5b506103136102bf5481565b604051908152602001610277565b34801561032d57600080fd5b50609954610313565b34801561034257600080fd5b506102fa610351366004613a0e565b61099b565b34801561036257600080fd5b50610313610371366004613b35565b6109cd565b34801561038257600080fd5b506102fa610391366004613c24565b610a63565b3480156103a257600080fd5b50610313610ad9565b3480156103b757600080fd5b506102fa6103c63660046139c2565b610ae8565b3480156103d757600080fd5b506103136103e6366004613b35565b610bc8565b3480156103f757600080fd5b506102fa610bf2565b34801561040c57600080fd5b506102fa610e14565b34801561042157600080fd5b506102fa610430366004613a0e565b610e49565b34801561044157600080fd5b506102fa610450366004613c0c565b610e64565b34801561046157600080fd5b506102fa610470366004613c0c565b610edb565b6102fa610483366004613ae9565b610f0c565b34801561049457600080fd5b506103136104a3366004613c0c565b610fd9565b3480156104b457600080fd5b5061031361107a565b3480156104c957600080fd5b506102c26104d83660046139c2565b6001600160a01b0390811660009081526101c560205260409020541690565b34801561050357600080fd5b506102fa6105123660046139c2565b61112d565b34801561052357600080fd5b5060fb5460ff1661026b565b34801561053b57600080fd5b506102c261054a366004613c0c565b611138565b34801561055b57600080fd5b5061031361056a3660046139c2565b6111af565b34801561057b57600080fd5b506102fa611236565b34801561059057600080fd5b5061031361059f3660046139c2565b61126b565b3480156105b057600080fd5b506102fa61128a565b3480156105c557600080fd5b506102fa61141e565b3480156105da57600080fd5b5061012d546001600160a01b03166102c2565b3480156105f957600080fd5b50610313610608366004613c0c565b611451565b34801561061957600080fd5b506102956114ae565b34801561062e57600080fd5b5061031361063d3660046139c2565b6114bd565b34801561064e57600080fd5b506102fa61065d366004613aaf565b6114df565b34801561066e57600080fd5b506102fa61067d366004613a49565b6114ea565b34801561068e57600080fd5b506102fa61069d366004613b5e565b611521565b3480156106ae57600080fd5b506102956106bd366004613c0c565b61164e565b6102fa6106d0366004613ae9565b611659565b3480156106e157600080fd5b506103136102c05481565b3480156106f857600080fd5b5061026b6107073660046139dc565b6001600160a01b039182166000908152606a6020908152604080832093909416825291909152205460ff1690565b34801561074157600080fd5b506102fa6107503660046139c2565b611707565b6000610760826117af565b92915050565b60606065805461077590613f90565b80601f01602080910402602001604051908101604052809291908181526020018280546107a190613f90565b80156107ee5780601f106107c3576101008083540402835291602001916107ee565b820191906000526020600020905b8154815290600101906020018083116107d157829003601f168201915b5050505050905090565b6000610803826117d4565b6108695760405162461bcd60e51b815260206004820152602c60248201527f4552433732313a20617070726f76656420717565727920666f72206e6f6e657860448201526b34b9ba32b73a103a37b5b2b760a11b60648201526084015b60405180910390fd5b506000908152606960205260409020546001600160a01b031690565b600061089082611138565b9050806001600160a01b0316836001600160a01b031614156108fe5760405162461bcd60e51b815260206004820152602160248201527f4552433732313a20617070726f76616c20746f2063757272656e74206f776e656044820152603960f91b6064820152608401610860565b336001600160a01b038216148061091a575061091a8133610707565b61098c5760405162461bcd60e51b815260206004820152603860248201527f4552433732313a20617070726f76652063616c6c6572206973206e6f74206f7760448201527f6e6572206e6f7220617070726f76656420666f7220616c6c00000000000000006064820152608401610860565b61099683836117f1565b505050565b6109a6335b8261185f565b6109c25760405162461bcd60e51b815260040161086090613e39565b610996838383611949565b60006109d8836111af565b8210610a3a5760405162461bcd60e51b815260206004820152602b60248201527f455243373231456e756d657261626c653a206f776e657220696e646578206f7560448201526a74206f6620626f756e647360a81b6064820152608401610860565b506001600160a01b03919091166000908152609760209081526040808320938352929052205490565b610a6e335b8361185f565b610acb5760405162461bcd60e51b815260206004820152602860248201527f4552433732313a2063616c6c6572206973206e6f74206f776e6572206e6f7220604482015267185c1c1c9bdd995960c21b6064820152608401610860565b610ad58282611af6565b5050565b6000610ae3611b81565b905090565b306001600160a01b037f0000000000000000000000000000000000000000000000000000000000000000161415610b315760405162461bcd60e51b815260040161086090613d6c565b7f00000000000000000000000000000000000000000000000000000000000000006001600160a01b0316610b7a60008051602061404d833981519152546001600160a01b031690565b6001600160a01b031614610ba05760405162461bcd60e51b815260040161086090613db8565b610ba981611bfe565b60408051600080825260208201909252610bc591839190611c29565b50565b6001600160a01b03821660009081526101c660205260408120610beb9083611da3565b9392505050565b61012d546001600160a01b03163314610c1d5760405162461bcd60e51b815260040161086090613e04565b600261028d541415610c715760405162461bcd60e51b815260206004820152601f60248201527f5265656e7472616e637947756172643a207265656e7472616e742063616c6c006044820152606401610860565b600261028d556000730d28ce6c997363fb6a76f0af9bac215e6d4886236064610c9b476063613f2e565b610ca59190613f1a565b604051600081818185875af1925050503d8060008114610ce1576040519150601f19603f3d011682016040523d82523d6000602084013e610ce6565b606091505b5050905080610d075760405162461bcd60e51b815260040161086090613ed5565b60007322e3d659b116b388de037b15c41656cff7633b496064610d2b476001613f2e565b610d359190613f1a565b604051600081818185875af1925050503d8060008114610d71576040519150601f19603f3d011682016040523d82523d6000602084013e610d76565b606091505b5050905080610d975760405162461bcd60e51b815260040161086090613ed5565b6000610dac61012d546001600160a01b031690565b6001600160a01b03164760405160006040518083038185875af1925050503d8060008114610df6576040519150601f19603f3d011682016040523d82523d6000602084013e610dfb565b606091505b5050905080610e0957600080fd5b5050600161028d5550565b61012d546001600160a01b03163314610e3f5760405162461bcd60e51b815260040161086090613e04565b610e47611ece565b565b610996838383604051806020016040528060008152506114ea565b610e6d336109a0565b610ed25760405162461bcd60e51b815260206004820152603060248201527f4552433732314275726e61626c653a2063616c6c6572206973206e6f74206f7760448201526f1b995c881b9bdc88185c1c1c9bdd995960821b6064820152608401610860565b610bc581611f61565b61012d546001600160a01b03163314610f065760405162461bcd60e51b815260040161086090613e04565b6102bf55565b306001600160a01b037f0000000000000000000000000000000000000000000000000000000000000000161415610f555760405162461bcd60e51b815260040161086090613d6c565b7f00000000000000000000000000000000000000000000000000000000000000006001600160a01b0316610f9e60008051602061404d833981519152546001600160a01b031690565b6001600160a01b031614610fc45760405162461bcd60e51b815260040161086090613db8565b610fcd82611bfe565b610ad582826001611c29565b6000610fe460995490565b82106110475760405162461bcd60e51b815260206004820152602c60248201527f455243373231456e756d657261626c653a20676c6f62616c20696e646578206f60448201526b7574206f6620626f756e647360a01b6064820152608401610860565b6099828154811061106857634e487b7160e01b600052603260045260246000fd5b90600052602060002001549050919050565b6000306001600160a01b037f0000000000000000000000000000000000000000000000000000000000000000161461111a5760405162461bcd60e51b815260206004820152603860248201527f555550535570677261646561626c653a206d757374206e6f742062652063616c60448201527f6c6564207468726f7567682064656c656761746563616c6c00000000000000006064820152608401610860565b5060008051602061404d83398151915290565b33610ad58183611f6a565b6000818152606760205260408120546001600160a01b0316806107605760405162461bcd60e51b815260206004820152602960248201527f4552433732313a206f776e657220717565727920666f72206e6f6e657869737460448201526832b73a103a37b5b2b760b91b6064820152608401610860565b60006001600160a01b03821661121a5760405162461bcd60e51b815260206004820152602a60248201527f4552433732313a2062616c616e636520717565727920666f7220746865207a65604482015269726f206164647265737360b01b6064820152608401610860565b506001600160a01b031660009081526068602052604090205490565b61012d546001600160a01b031633146112615760405162461bcd60e51b815260040161086090613e04565b610e476000611fdd565b6001600160a01b03811660009081526101c86020526040812054610760565b600054610100900460ff166112a55760005460ff16156112a9565b303b155b61130c5760405162461bcd60e51b815260206004820152602e60248201527f496e697469616c697a61626c653a20636f6e747261637420697320616c72656160448201526d191e481a5b9a5d1a585b1a5e995960921b6064820152608401610860565b600054610100900460ff1615801561132e576000805461ffff19166101011790555b61137360405180604001604052806007815260200166476f6c6644414f60c81b815250604051806040016040528060048152602001634744414f60e01b815250612030565b61137b612061565b611383612061565b61138b612088565b6113936120b7565b61139b612061565b6113dd60405180604001604052806007815260200166476f6c6644414f60c81b815250604051806040016040528060018152602001603160f81b8152506120e6565b6113e5612061565b6113ed612061565b6113f5612117565b6825f273933db57000006102bf556113886102c0558015610bc5576000805461ff001916905550565b61012d546001600160a01b031633146114495760405162461bcd60e51b815260040161086090613e04565b610e47612146565b60004382106114a25760405162461bcd60e51b815260206004820152601a60248201527f566f7465733a20626c6f636b206e6f7420796574206d696e65640000000000006044820152606401610860565b6107606101c783611da3565b60606066805461077590613f90565b6001600160a01b03811660009081526101c660205260408120610760906121c1565b610ad533838361222b565b6114f333610a68565b61150f5760405162461bcd60e51b815260040161086090613e39565b61151b848484846122fa565b50505050565b834211156115715760405162461bcd60e51b815260206004820152601860248201527f566f7465733a207369676e6174757265206578706972656400000000000000006044820152606401610860565b604080517fe48329057bfd03d55e49b547132e39cffd9c1820ad7b9d4c5307691425d15adf60208201526001600160a01b0388169181019190915260608101869052608081018590526000906115eb906115e39060a0016040516020818303038152906040528051906020012061232d565b85858561237b565b90506115f6816123a3565b861461163b5760405162461bcd60e51b8152602060048201526014602482015273566f7465733a20696e76616c6964206e6f6e636560601b6044820152606401610860565b6116458188611f6a565b50505050505050565b6060610760826123cc565b61012d546001600160a01b0316331461168f576102bf5434101561168f5760405162461bcd60e51b815260040161086090613ed5565b600061169b6102c15490565b90506102c05481116116e45760405162461bcd60e51b815260206004820152601260248201527113585e081cdd5c1c1b1e481c995858da195960721b6044820152606401610860565b6116f36102c180546001019055565b6116fd838261253b565b6109968183611af6565b61012d546001600160a01b031633146117325760405162461bcd60e51b815260040161086090613e04565b6001600160a01b0381166117975760405162461bcd60e51b815260206004820152602660248201527f4f776e61626c653a206e6577206f776e657220697320746865207a65726f206160448201526564647265737360d01b6064820152608401610860565b610bc581611fdd565b6001600160a01b03163b151590565b60006001600160e01b0319821663780e9d6360e01b1480610760575061076082612555565b6000908152606760205260409020546001600160a01b0316151590565b600081815260696020526040902080546001600160a01b0319166001600160a01b038416908117909155819061182682611138565b6001600160a01b03167f8c5be1e5ebec7d5bd14f71427d1e84f3dd0314c0f7b2291e5b200ac8c7c3b92560405160405180910390a45050565b600061186a826117d4565b6118cb5760405162461bcd60e51b815260206004820152602c60248201527f4552433732313a206f70657261746f7220717565727920666f72206e6f6e657860448201526b34b9ba32b73a103a37b5b2b760a11b6064820152608401610860565b60006118d683611138565b9050806001600160a01b0316846001600160a01b031614806119115750836001600160a01b0316611906846107f8565b6001600160a01b0316145b8061194157506001600160a01b038082166000908152606a602090815260408083209388168352929052205460ff165b949350505050565b826001600160a01b031661195c82611138565b6001600160a01b0316146119c05760405162461bcd60e51b815260206004820152602560248201527f4552433732313a207472616e736665722066726f6d20696e636f72726563742060448201526437bbb732b960d91b6064820152608401610860565b6001600160a01b038216611a225760405162461bcd60e51b8152602060048201526024808201527f4552433732313a207472616e7366657220746f20746865207a65726f206164646044820152637265737360e01b6064820152608401610860565b611a2d8383836125a5565b611a386000826117f1565b6001600160a01b0383166000908152606860205260408120805460019290611a61908490613f4d565b90915550506001600160a01b0382166000908152606860205260408120805460019290611a8f908490613f02565b909155505060008181526067602052604080822080546001600160a01b0319166001600160a01b0386811691821790925591518493918716917fddf252ad1be2c89b69c2b068fc378daa952ba7f163c4a11628f55a4df523b3ef91a46109968383836125f6565b611aff826117d4565b611b625760405162461bcd60e51b815260206004820152602e60248201527f45524337323155524953746f726167653a2055524920736574206f66206e6f6e60448201526d32bc34b9ba32b73a103a37b5b2b760911b6064820152608401610860565b600082815260c960209081526040909120825161099692840190613854565b6000610ae37f8b73c3c69bb8fe3d512ecc4cf759cc79239f7b179b0ffacaa9a75d522b39400f611bb16101915490565b610192546040805160208101859052908101839052606081018290524660808201523060a082015260009060c0016040516020818303038152906040528051906020012090509392505050565b61012d546001600160a01b03163314610bc55760405162461bcd60e51b815260040161086090613e04565b7f4910fdfa16fed3260ed0e7147f7cc6da11a60208b5b9406d12a635614ffd91435460ff1615611c5c5761099683612601565b826001600160a01b03166352d1902d6040518163ffffffff1660e01b815260040160206040518083038186803b158015611c9557600080fd5b505afa925050508015611cc5575060408051601f3d908101601f19168201909252611cc291810190613bbc565b60015b611d285760405162461bcd60e51b815260206004820152602e60248201527f45524331393637557067726164653a206e657720696d706c656d656e7461746960448201526d6f6e206973206e6f74205555505360901b6064820152608401610860565b60008051602061404d8339815191528114611d975760405162461bcd60e51b815260206004820152602960248201527f45524331393637557067726164653a20756e737570706f727465642070726f786044820152681a58589b195555525160ba1b6064820152608401610860565b5061099683838361269d565b6000438210611df45760405162461bcd60e51b815260206004820181905260248201527f436865636b706f696e74733a20626c6f636b206e6f7420796574206d696e65646044820152606401610860565b825460005b81811015611e67576000611e0d82846126c2565b905084866000018281548110611e3357634e487b7160e01b600052603260045260246000fd5b60009182526020909120015463ffffffff161115611e5357809250611e61565b611e5e816001613f02565b91505b50611df9565b8115611eb95784611e79600184613f4d565b81548110611e9757634e487b7160e01b600052603260045260246000fd5b60009182526020909120015464010000000090046001600160e01b0316611ebc565b60005b6001600160e01b031695945050505050565b60fb5460ff16611f175760405162461bcd60e51b815260206004820152601460248201527314185d5cd8589b194e881b9bdd081c185d5cd95960621b6044820152606401610860565b60fb805460ff191690557f5db9ee0a495bf2e6ff9c91a7834c1ba4fdd244a5e8aa4e537bd38aeae4b073aa335b6040516001600160a01b03909116815260200160405180910390a1565b610bc5816126dd565b6001600160a01b0382811660008181526101c5602052604080822080548686166001600160a01b0319821681179092559151919094169392849290917f3134e8a2e6d97e929a7e54011ea5485d7d196dd5f0ba4d4ef95803e8e3fc257f9190a46109968183611fd88661271d565b612728565b61012d80546001600160a01b038381166001600160a01b0319831681179093556040519116919082907f8be0079c531659141344cd1fd0a4f28419497f9722a3daafe3b4186f6b6457e090600090a35050565b600054610100900460ff166120575760405162461bcd60e51b815260040161086090613e8a565b610ad58282612867565b600054610100900460ff16610e475760405162461bcd60e51b815260040161086090613e8a565b600054610100900460ff166120af5760405162461bcd60e51b815260040161086090613e8a565b610e476128b5565b600054610100900460ff166120de5760405162461bcd60e51b815260040161086090613e8a565b610e476128e8565b600054610100900460ff1661210d5760405162461bcd60e51b815260040161086090613e8a565b610ad58282612918565b600054610100900460ff1661213e5760405162461bcd60e51b815260040161086090613e8a565b610e4761295b565b60fb5460ff161561218c5760405162461bcd60e51b815260206004820152601060248201526f14185d5cd8589b194e881c185d5cd95960821b6044820152606401610860565b60fb805460ff191660011790557f62e78cea01bee320cd4e420270b5ea74000d11b0c9f74754ebdbfc544b05a258611f443390565b8054600090801561221857826121d8600183613f4d565b815481106121f657634e487b7160e01b600052603260045260246000fd5b60009182526020909120015464010000000090046001600160e01b031661221b565b60005b6001600160e01b03169392505050565b816001600160a01b0316836001600160a01b0316141561228d5760405162461bcd60e51b815260206004820152601960248201527f4552433732313a20617070726f766520746f2063616c6c6572000000000000006044820152606401610860565b6001600160a01b038381166000818152606a6020908152604080832094871680845294825291829020805460ff191686151590811790915591519182527f17307eab39ab6107e8899845ad3d59bd9653f200f220920489ca2b5937696c31910160405180910390a3505050565b612305848484611949565b6123118484848461298a565b61151b5760405162461bcd60e51b815260040161086090613d1a565b600061076061233a611b81565b8360405161190160f01b6020820152602281018390526042810182905260009060620160405160208183030381529060405280519060200120905092915050565b600080600061238c87878787612a94565b9150915061239981612b81565b5095945050505050565b6001600160a01b03811660009081526101c8602052604090208054600181018255905b50919050565b60606123d7826117d4565b61243d5760405162461bcd60e51b815260206004820152603160248201527f45524337323155524953746f726167653a2055524920717565727920666f72206044820152703737b732bc34b9ba32b73a103a37b5b2b760791b6064820152608401610860565b600082815260c960205260408120805461245690613f90565b80601f016020809104026020016040519081016040528092919081815260200182805461248290613f90565b80156124cf5780601f106124a4576101008083540402835291602001916124cf565b820191906000526020600020905b8154815290600101906020018083116124b257829003601f168201915b5050505050905060006124ed60408051602081019091526000815290565b9050805160001415612500575092915050565b81511561253257808260405160200161251a929190613c9b565b60405160208183030381529060405292505050919050565b61194184612d82565b610ad5828260405180602001604052806000815250612e59565b60006001600160e01b031982166380ac58cd60e01b148061258657506001600160e01b03198216635b5e139f60e01b145b8061076057506301ffc9a760e01b6001600160e01b0319831614610760565b60fb5460ff16156125eb5760405162461bcd60e51b815260206004820152601060248201526f14185d5cd8589b194e881c185d5cd95960821b6044820152606401610860565b610996838383612e8c565b610996838383612f44565b6001600160a01b0381163b61266e5760405162461bcd60e51b815260206004820152602d60248201527f455243313936373a206e657720696d706c656d656e746174696f6e206973206e60448201526c1bdd08184818dbdb9d1c9858dd609a1b6064820152608401610860565b60008051602061404d83398151915280546001600160a01b0319166001600160a01b0392909216919091179055565b6126a683612f50565b6000825111806126b35750805b156109965761151b8383612f90565b60006126d16002848418613f1a565b610beb90848416613f02565b6126e681613084565b600081815260c96020526040902080546126ff90613f90565b159050610bc557600081815260c960205260408120610bc5916138d4565b6000610760826111af565b816001600160a01b0316836001600160a01b03161415801561274a5750600081115b15610996576001600160a01b038316156127d9576001600160a01b03831660009081526101c6602052604081208190612786906131338561313f565b91509150846001600160a01b03167fdec2bacdd2f05b59de34da9b523dff8be42e5e38e818c82fdb0bae774387a72483836040516127ce929190918252602082015260400190565b60405180910390a250505b6001600160a01b03821615610996576001600160a01b03821660009081526101c66020526040812081906128109061316d8561313f565b91509150836001600160a01b03167fdec2bacdd2f05b59de34da9b523dff8be42e5e38e818c82fdb0bae774387a7248383604051612858929190918252602082015260400190565b60405180910390a25050505050565b600054610100900460ff1661288e5760405162461bcd60e51b815260040161086090613e8a565b81516128a1906065906020850190613854565b508051610996906066906020840190613854565b600054610100900460ff166128dc5760405162461bcd60e51b815260040161086090613e8a565b60fb805460ff19169055565b600054610100900460ff1661290f5760405162461bcd60e51b815260040161086090613e8a565b610e4733611fdd565b600054610100900460ff1661293f5760405162461bcd60e51b815260040161086090613e8a565b8151602092830120815191909201206101919190915561019255565b600054610100900460ff166129825760405162461bcd60e51b815260040161086090613e8a565b600161028d55565b60006001600160a01b0384163b15612a8c57604051630a85bd0160e11b81526001600160a01b0385169063150b7a02906129ce903390899088908890600401613cca565b602060405180830381600087803b1580156129e857600080fd5b505af1925050508015612a18575060408051601f3d908101601f19168201909252612a1591810190613bf0565b60015b612a72573d808015612a46576040519150601f19603f3d011682016040523d82523d6000602084013e612a4b565b606091505b508051612a6a5760405162461bcd60e51b815260040161086090613d1a565b805181602001fd5b6001600160e01b031916630a85bd0160e11b149050611941565b506001611941565b6000807f7fffffffffffffffffffffffffffffff5d576e7357a4501ddfe92f46681b20a0831115612acb5750600090506003612b78565b8460ff16601b14158015612ae357508460ff16601c14155b15612af45750600090506004612b78565b6040805160008082526020820180845289905260ff881692820192909252606081018690526080810185905260019060a0016020604051602081039080840390855afa158015612b48573d6000803e3d6000fd5b5050604051601f1901519150506001600160a01b038116612b7157600060019250925050612b78565b9150600090505b94509492505050565b6000816004811115612ba357634e487b7160e01b600052602160045260246000fd5b1415612bac5750565b6001816004811115612bce57634e487b7160e01b600052602160045260246000fd5b1415612c1c5760405162461bcd60e51b815260206004820152601860248201527f45434453413a20696e76616c6964207369676e617475726500000000000000006044820152606401610860565b6002816004811115612c3e57634e487b7160e01b600052602160045260246000fd5b1415612c8c5760405162461bcd60e51b815260206004820152601f60248201527f45434453413a20696e76616c6964207369676e6174757265206c656e677468006044820152606401610860565b6003816004811115612cae57634e487b7160e01b600052602160045260246000fd5b1415612d075760405162461bcd60e51b815260206004820152602260248201527f45434453413a20696e76616c6964207369676e6174757265202773272076616c604482015261756560f01b6064820152608401610860565b6004816004811115612d2957634e487b7160e01b600052602160045260246000fd5b1415610bc55760405162461bcd60e51b815260206004820152602260248201527f45434453413a20696e76616c6964207369676e6174757265202776272076616c604482015261756560f01b6064820152608401610860565b6060612d8d826117d4565b612df15760405162461bcd60e51b815260206004820152602f60248201527f4552433732314d657461646174613a2055524920717565727920666f72206e6f60448201526e3732bc34b9ba32b73a103a37b5b2b760891b6064820152608401610860565b6000612e0860408051602081019091526000815290565b90506000815111612e285760405180602001604052806000815250610beb565b80612e3284613179565b604051602001612e43929190613c9b565b6040516020818303038152906040529392505050565b612e638383613293565b612e70600084848461298a565b6109965760405162461bcd60e51b815260040161086090613d1a565b6001600160a01b038316612ee757612ee281609980546000838152609a60205260408120829055600182018355919091527f72a152ddfb8e864297c917af52ea6c1c68aead0fee1a62673fcc7e0c94979d000155565b612f0a565b816001600160a01b0316836001600160a01b031614612f0a57612f0a83826133da565b6001600160a01b038216612f215761099681613477565b826001600160a01b0316826001600160a01b031614610996576109968282613550565b61099683836001613594565b612f5981612601565b6040516001600160a01b038216907fbc7cd75a20ee27fd9adebab32041f755214dbc6bffa90cc0225b39da2e5c2d3b90600090a250565b60606001600160a01b0383163b612ff85760405162461bcd60e51b815260206004820152602660248201527f416464726573733a2064656c65676174652063616c6c20746f206e6f6e2d636f6044820152651b9d1c9858dd60d21b6064820152608401610860565b600080846001600160a01b0316846040516130139190613c7f565b600060405180830381855af49150503d806000811461304e576040519150601f19603f3d011682016040523d82523d6000602084013e613053565b606091505b509150915061307b828260405180606001604052806027815260200161406d60279139613607565b95945050505050565b600061308f82611138565b905061309d816000846125a5565b6130a86000836117f1565b6001600160a01b03811660009081526068602052604081208054600192906130d1908490613f4d565b909155505060008281526067602052604080822080546001600160a01b0319169055518391906001600160a01b038416907fddf252ad1be2c89b69c2b068fc378daa952ba7f163c4a11628f55a4df523b3ef908390a4610ad5816000846125f6565b6000610beb8284613f4d565b6000806131618561315c613152886121c1565b868863ffffffff16565b613640565b91509150935093915050565b6000610beb8284613f02565b60608161319d5750506040805180820190915260018152600360fc1b602082015290565b8160005b81156131c757806131b181613fc5565b91506131c09050600a83613f1a565b91506131a1565b60008167ffffffffffffffff8111156131f057634e487b7160e01b600052604160045260246000fd5b6040519080825280601f01601f19166020018201604052801561321a576020820181803683370190505b5090505b84156119415761322f600183613f4d565b915061323c600a86613fe0565b613247906030613f02565b60f81b81838151811061326a57634e487b7160e01b600052603260045260246000fd5b60200101906001600160f81b031916908160001a90535061328c600a86613f1a565b945061321e565b6001600160a01b0382166132e95760405162461bcd60e51b815260206004820181905260248201527f4552433732313a206d696e7420746f20746865207a65726f20616464726573736044820152606401610860565b6132f2816117d4565b1561333f5760405162461bcd60e51b815260206004820152601c60248201527f4552433732313a20746f6b656e20616c7265616479206d696e746564000000006044820152606401610860565b61334b600083836125a5565b6001600160a01b0382166000908152606860205260408120805460019290613374908490613f02565b909155505060008181526067602052604080822080546001600160a01b0319166001600160a01b03861690811790915590518392907fddf252ad1be2c89b69c2b068fc378daa952ba7f163c4a11628f55a4df523b3ef908290a4610ad5600083836125f6565b600060016133e7846111af565b6133f19190613f4d565b600083815260986020526040902054909150808214613444576001600160a01b03841660009081526097602090815260408083208584528252808320548484528184208190558352609890915290208190555b5060009182526098602090815260408084208490556001600160a01b039094168352609781528383209183525290812055565b60995460009061348990600190613f4d565b6000838152609a6020526040812054609980549394509092849081106134bf57634e487b7160e01b600052603260045260246000fd5b9060005260206000200154905080609983815481106134ee57634e487b7160e01b600052603260045260246000fd5b6000918252602080832090910192909255828152609a9091526040808220849055858252812055609980548061353457634e487b7160e01b600052603160045260246000fd5b6001900381819060005260206000200160009055905550505050565b600061355b836111af565b6001600160a01b039093166000908152609760209081526040808320868452825280832085905593825260989052919091209190915550565b6001600160a01b0383166135b4576135b16101c761316d8361313f565b50505b6001600160a01b0382166135d4576135d16101c76131338361313f565b50505b6001600160a01b0383811660009081526101c5602052604080822054858416835291205461099692918216911683612728565b60608315613616575081610beb565b8251156136265782518084602001fd5b8160405162461bcd60e51b81526004016108609190613d07565b8154600090819081613651866121c1565b905060008211801561369d5750438661366b600185613f4d565b8154811061368957634e487b7160e01b600052603260045260246000fd5b60009182526020909120015463ffffffff16145b1561370b576136ab85613782565b866136b7600185613f4d565b815481106136d557634e487b7160e01b600052603260045260246000fd5b9060005260206000200160000160046101000a8154816001600160e01b0302191690836001600160e01b03160217905550613779565b856000016040518060400160405280613723436137ef565b63ffffffff16815260200161373788613782565b6001600160e01b0390811690915282546001810184556000938452602093849020835194909301519091166401000000000263ffffffff909316929092179101555b95939450505050565b60006001600160e01b038211156137eb5760405162461bcd60e51b815260206004820152602760248201527f53616665436173743a2076616c756520646f65736e27742066697420696e20326044820152663234206269747360c81b6064820152608401610860565b5090565b600063ffffffff8211156137eb5760405162461bcd60e51b815260206004820152602660248201527f53616665436173743a2076616c756520646f65736e27742066697420696e203360448201526532206269747360d01b6064820152608401610860565b82805461386090613f90565b90600052602060002090601f01602090048101928261388257600085556138c8565b82601f1061389b57805160ff19168380011785556138c8565b828001600101855582156138c8579182015b828111156138c85782518255916020019190600101906138ad565b506137eb92915061390a565b5080546138e090613f90565b6000825580601f106138f0575050565b601f016020900490600052602060002090810190610bc591905b5b808211156137eb576000815560010161390b565b80356001600160a01b038116811461393657600080fd5b919050565b600082601f83011261394b578081fd5b813567ffffffffffffffff8082111561396657613966614020565b604051601f8301601f19908116603f0116810190828211818310171561398e5761398e614020565b816040528381528660208588010111156139a6578485fd5b8360208701602083013792830160200193909352509392505050565b6000602082840312156139d3578081fd5b610beb8261391f565b600080604083850312156139ee578081fd5b6139f78361391f565b9150613a056020840161391f565b90509250929050565b600080600060608486031215613a22578081fd5b613a2b8461391f565b9250613a396020850161391f565b9150604084013590509250925092565b60008060008060808587031215613a5e578081fd5b613a678561391f565b9350613a756020860161391f565b925060408501359150606085013567ffffffffffffffff811115613a97578182fd5b613aa38782880161393b565b91505092959194509250565b60008060408385031215613ac1578182fd5b613aca8361391f565b915060208301358015158114613ade578182fd5b809150509250929050565b60008060408385031215613afb578182fd5b613b048361391f565b9150602083013567ffffffffffffffff811115613b1f578182fd5b613b2b8582860161393b565b9150509250929050565b60008060408385031215613b47578182fd5b613b508361391f565b946020939093013593505050565b60008060008060008060c08789031215613b76578182fd5b613b7f8761391f565b95506020870135945060408701359350606087013560ff81168114613ba2578283fd5b9598949750929560808101359460a0909101359350915050565b600060208284031215613bcd578081fd5b5051919050565b600060208284031215613be5578081fd5b8135610beb81614036565b600060208284031215613c01578081fd5b8151610beb81614036565b600060208284031215613c1d578081fd5b5035919050565b60008060408385031215613c36578182fd5b82359150602083013567ffffffffffffffff811115613b1f578182fd5b60008151808452613c6b816020860160208601613f64565b601f01601f19169290920160200192915050565b60008251613c91818460208701613f64565b9190910192915050565b60008351613cad818460208801613f64565b835190830190613cc1818360208801613f64565b01949350505050565b6001600160a01b0385811682528416602082015260408101839052608060608201819052600090613cfd90830184613c53565b9695505050505050565b602081526000610beb6020830184613c53565b60208082526032908201527f4552433732313a207472616e7366657220746f206e6f6e20455243373231526560408201527131b2b4bb32b91034b6b83632b6b2b73a32b960711b606082015260800190565b6020808252602c908201527f46756e6374696f6e206d7573742062652063616c6c6564207468726f7567682060408201526b19195b1959d85d1958d85b1b60a21b606082015260800190565b6020808252602c908201527f46756e6374696f6e206d7573742062652063616c6c6564207468726f7567682060408201526b6163746976652070726f787960a01b606082015260800190565b6020808252818101527f4f776e61626c653a2063616c6c6572206973206e6f7420746865206f776e6572604082015260600190565b60208082526031908201527f4552433732313a207472616e736665722063616c6c6572206973206e6f74206f6040820152701ddb995c881b9bdc88185c1c1c9bdd9959607a1b606082015260800190565b6020808252602b908201527f496e697469616c697a61626c653a20636f6e7472616374206973206e6f74206960408201526a6e697469616c697a696e6760a81b606082015260800190565b602080825260139082015272496e73756666696369656e742066756e64732160681b604082015260600190565b60008219821115613f1557613f15613ff4565b500190565b600082613f2957613f2961400a565b500490565b6000816000190483118215151615613f4857613f48613ff4565b500290565b600082821015613f5f57613f5f613ff4565b500390565b60005b83811015613f7f578181015183820152602001613f67565b8381111561151b5750506000910152565b600181811c90821680613fa457607f821691505b602082108114156123c657634e487b7160e01b600052602260045260246000fd5b6000600019821415613fd957613fd9613ff4565b5060010190565b600082613fef57613fef61400a565b500690565b634e487b7160e01b600052601160045260246000fd5b634e487b7160e01b600052601260045260246000fd5b634e487b7160e01b600052604160045260246000fd5b6001600160e01b031981168114610bc557600080fdfe360894a13ba1a3210667c828492db98dca3e2076cc3735a920a3ca505d382bbc416464726573733a206c6f772d6c6576656c2064656c65676174652063616c6c206661696c6564a2646970667358221220e719e9c243e77212130cad6e83331b8c7b365f2f846a193e5b57510073f7d84e64736f6c63430008040033",
  "linkReferences": {},
  "deployedLinkReferences": {}
}